{
  "contractName": "DopeToken",
  "abi": [
    {
      "inputs": [],
      "payable": false,
      "stateMutability": "nonpayable",
      "type": "constructor"
    },
    {
      "constant": true,
      "inputs": [],
      "name": "totalSupply",
      "outputs": [
        {
          "internalType": "uint256",
          "name": "",
          "type": "uint256"
        }
      ],
      "payable": false,
      "stateMutability": "view",
      "type": "function"
    }
  ],
  "bytecode": "0x6080604052348015600f57600080fd5b50620f42406000819055506084806100286000396000f3fe6080604052348015600f57600080fd5b506004361060285760003560e01c806318160ddd14602d575b600080fd5b60336049565b6040518082815260200191505060405180910390f35b6000548156fea265627a7a72315820c36917d3b6c0fd43cd4edd65d9bdc5353cc290b216ea8d3ca66c295df951c97964736f6c63430005100032",
  "source": "// SPDX-License-Identifier: MIT\r\npragma solidity >=0.4.22 <0.9.0;\r\n\r\ncontract DopeToken{\r\n\r\n    uint256 public totalSupply;\r\n    \r\n    constructor () public{\r\n\r\n        totalSupply = 1000000;\r\n    }\r\n}",
  "sourcePath": "C:\\Users\\hp\\Documents\\Web Designing\\Dope\\contracts\\DopeToken.sol",
  "compiler": {
    "name": "solc",
    "version": "0.5.16+commit.9c3226ce.Emscripten.clang"
  },
  "schemaVersion": "3.4.4",
  "updatedAt": "2022-02-06T10:24:01.761Z",
  "networkType": "ethereum",
  "devdoc": {
    "methods": {}
  },
  "userdoc": {
    "methods": {}
  }
}